{"abi":[{"type":"function","name":"addItem","inputs":[{"name":"_name","type":"string","internalType":"string"},{"name":"_amount","type":"uint256","internalType":"uint256"}],"outputs":[],"stateMutability":"nonpayable"},{"type":"function","name":"allMarketPlaceItems","inputs":[],"outputs":[{"name":"items","type":"tuple[]","internalType":"struct MarketPlace.Market[]","components":[{"name":"owner","type":"address","internalType":"address"},{"name":"name","type":"string","internalType":"string"},{"name":"amount","type":"uint256","internalType":"uint256"},{"name":"sold","type":"bool","internalType":"bool"}]}],"stateMutability":"view"},{"type":"function","name":"buy","inputs":[{"name":"_index","type":"uint256","internalType":"uint256"}],"outputs":[],"stateMutability":"payable"},{"type":"function","name":"clientListedItems","inputs":[{"name":"_owner","type":"address","internalType":"address"}],"outputs":[{"name":"items","type":"tuple[]","internalType":"struct MarketPlace.Market[]","components":[{"name":"owner","type":"address","internalType":"address"},{"name":"name","type":"string","internalType":"string"},{"name":"amount","type":"uint256","internalType":"uint256"},{"name":"sold","type":"bool","internalType":"bool"}]}],"stateMutability":"view"},{"type":"function","name":"getMarketItem","inputs":[{"name":"index","type":"uint256","internalType":"uint256"}],"outputs":[{"name":"owner","type":"address","internalType":"address"},{"name":"name","type":"string","internalType":"string"},{"name":"amount","type":"uint256","internalType":"uint256"},{"name":"sold","type":"bool","internalType":"bool"}],"stateMutability":"view"},{"type":"function","name":"getMarketItemCount","inputs":[],"outputs":[{"name":"","type":"uint256","internalType":"uint256"}],"stateMutability":"view"},{"type":"function","name":"getOne","inputs":[],"outputs":[{"name":"","type":"uint256","internalType":"uint256"}],"stateMutability":"pure"},{"type":"function","name":"marketItems","inputs":[{"name":"","type":"uint256","internalType":"uint256"}],"outputs":[{"name":"owner","type":"address","internalType":"address"},{"name":"name","type":"string","internalType":"string"},{"name":"amount","type":"uint256","internalType":"uint256"},{"name":"sold","type":"bool","internalType":"bool"}],"stateMutability":"view"},{"type":"function","name":"numOfItems","inputs":[],"outputs":[{"name":"","type":"uint256","internalType":"uint256"}],"stateMutability":"view"}],"bytecode":{"object":"0x6080604052348015600e575f80fd5b506116ce8061001c5f395ff3fe608060405260043610610085575f3560e01c8063b806d87211610058578063b806d87214610144578063c71bc6841461016e578063c7be7a49146101aa578063d96a094a146101e9578063f287eb641461020557610085565b806351f28e141461008957806362d6bbdf146100c857806382682ff3146100f0578063ab5ed1501461011a575b5f80fd5b348015610094575f80fd5b506100af60048036038101906100aa9190610c8f565b61022f565b6040516100bf9493929190610d92565b60405180910390f35b3480156100d3575f80fd5b506100ee60048036038101906100e99190610e3d565b61030b565b005b3480156100fb575f80fd5b5061010461043b565b6040516101119190610e9a565b60405180910390f35b348015610125575f80fd5b5061012e610441565b60405161013b9190610e9a565b60405180910390f35b34801561014f575f80fd5b50610158610449565b6040516101659190610e9a565b60405180910390f35b348015610179575f80fd5b50610194600480360381019061018f9190610edd565b610452565b6040516101a19190611098565b60405180910390f35b3480156101b5575f80fd5b506101d060048036038101906101cb9190610c8f565b61070e565b6040516101e09493929190610d92565b60405180910390f35b61020360048036038101906101fe9190610c8f565b610841565b005b348015610210575f80fd5b50610219610a5f565b6040516102269190611098565b60405180910390f35b5f602052805f5260405f205f91509050805f015f9054906101000a900473ffffffffffffffffffffffffffffffffffffffff1690806001018054610272906110e5565b80601f016020809104026020016040519081016040528092919081815260200182805461029e906110e5565b80156102e95780601f106102c0576101008083540402835291602001916102e9565b820191905f5260205f20905b8154815290600101906020018083116102cc57829003601f168201915b505050505090806002015490806003015f9054906101000a900460ff16905084565b60405180608001604052803373ffffffffffffffffffffffffffffffffffffffff16815260200184848080601f0160208091040260200160405190810160405280939291908181526020018383808284375f81840152601f19601f8201169050808301925050505050505081526020018281526020015f15158152505f8060015481526020019081526020015f205f820151815f015f6101000a81548173ffffffffffffffffffffffffffffffffffffffff021916908373ffffffffffffffffffffffffffffffffffffffff16021790555060208201518160010190816103f291906112df565b50604082015181600201556060820151816003015f6101000a81548160ff02191690831515021790555090505060015f815480929190610431906113db565b9190505550505050565b60015481565b5f6001905090565b5f600154905090565b60605f805b6001548110156104e1578373ffffffffffffffffffffffffffffffffffffffff165f808381526020019081526020015f205f015f9054906101000a900473ffffffffffffffffffffffffffffffffffffffff1673ffffffffffffffffffffffffffffffffffffffff16036104d45781806104d0906113db565b9250505b8080600101915050610457565b508067ffffffffffffffff8111156104fc576104fb611115565b5b60405190808252806020026020018201604052801561053557816020015b610522610c17565b81526020019060019003908161051a5790505b5091505f805b600154811015610706578473ffffffffffffffffffffffffffffffffffffffff165f808381526020019081526020015f205f015f9054906101000a900473ffffffffffffffffffffffffffffffffffffffff1673ffffffffffffffffffffffffffffffffffffffff16036106f9575f808281526020019081526020015f206040518060800160405290815f82015f9054906101000a900473ffffffffffffffffffffffffffffffffffffffff1673ffffffffffffffffffffffffffffffffffffffff1673ffffffffffffffffffffffffffffffffffffffff168152602001600182018054610628906110e5565b80601f0160208091040260200160405190810160405280929190818152602001828054610654906110e5565b801561069f5780601f106106765761010080835404028352916020019161069f565b820191905f5260205f20905b81548152906001019060200180831161068257829003601f168201915b5050505050815260200160028201548152602001600382015f9054906101000a900460ff1615151515815250508483815181106106df576106de611422565b5b602002602001018190525081806106f5906113db565b9250505b808060010191505061053b565b505050919050565b5f60605f806001548510610757576040517f08c379a000000000000000000000000000000000000000000000000000000000815260040161074e90611499565b60405180910390fd5b5f805f8781526020019081526020015f209050805f015f9054906101000a900473ffffffffffffffffffffffffffffffffffffffff16816001018260020154836003015f9054906101000a900460ff168280546107b3906110e5565b80601f01602080910402602001604051908101604052809291908181526020018280546107df906110e5565b801561082a5780601f106108015761010080835404028352916020019161082a565b820191905f5260205f20905b81548152906001019060200180831161080d57829003601f168201915b505050505092509450945094509450509193509193565b6001548110610885576040517f08c379a000000000000000000000000000000000000000000000000000000000815260040161087c90611501565b60405180910390fd5b5f805f8381526020019081526020015f209050806003015f9054906101000a900460ff16156108e9576040517f08c379a00000000000000000000000000000000000000000000000000000000081526004016108e090611569565b60405180910390fd5b8060020154341461092f576040517f08c379a0000000000000000000000000000000000000000000000000000000008152600401610926906115d1565b60405180910390fd5b5f815f015f9054906101000a900473ffffffffffffffffffffffffffffffffffffffff1673ffffffffffffffffffffffffffffffffffffffff16826002015460405161097a9061161c565b5f6040518083038185875af1925050503d805f81146109b4576040519150601f19603f3d011682016040523d82523d5f602084013e6109b9565b606091505b50509050806109fd576040517f08c379a00000000000000000000000000000000000000000000000000000000081526004016109f49061167a565b60405180910390fd5b33825f015f6101000a81548173ffffffffffffffffffffffffffffffffffffffff021916908373ffffffffffffffffffffffffffffffffffffffff1602179055506001826003015f6101000a81548160ff021916908315150217905550505050565b606060015467ffffffffffffffff811115610a7d57610a7c611115565b5b604051908082528060200260200182016040528015610ab657816020015b610aa3610c17565b815260200190600190039081610a9b5790505b5090505f5b600154811015610c13575f808281526020019081526020015f206040518060800160405290815f82015f9054906101000a900473ffffffffffffffffffffffffffffffffffffffff1673ffffffffffffffffffffffffffffffffffffffff1673ffffffffffffffffffffffffffffffffffffffff168152602001600182018054610b44906110e5565b80601f0160208091040260200160405190810160405280929190818152602001828054610b70906110e5565b8015610bbb5780601f10610b9257610100808354040283529160200191610bbb565b820191905f5260205f20905b815481529060010190602001808311610b9e57829003601f168201915b5050505050815260200160028201548152602001600382015f9054906101000a900460ff161515151581525050828281518110610bfb57610bfa611422565b5b60200260200101819052508080600101915050610abb565b5090565b60405180608001604052805f73ffffffffffffffffffffffffffffffffffffffff168152602001606081526020015f81526020015f151581525090565b5f80fd5b5f80fd5b5f819050919050565b610c6e81610c5c565b8114610c78575f80fd5b50565b5f81359050610c8981610c65565b92915050565b5f60208284031215610ca457610ca3610c54565b5b5f610cb184828501610c7b565b91505092915050565b5f73ffffffffffffffffffffffffffffffffffffffff82169050919050565b5f610ce382610cba565b9050919050565b610cf381610cd9565b82525050565b5f81519050919050565b5f82825260208201905092915050565b8281835e5f83830152505050565b5f601f19601f8301169050919050565b5f610d3b82610cf9565b610d458185610d03565b9350610d55818560208601610d13565b610d5e81610d21565b840191505092915050565b610d7281610c5c565b82525050565b5f8115159050919050565b610d8c81610d78565b82525050565b5f608082019050610da55f830187610cea565b8181036020830152610db78186610d31565b9050610dc66040830185610d69565b610dd36060830184610d83565b95945050505050565b5f80fd5b5f80fd5b5f80fd5b5f8083601f840112610dfd57610dfc610ddc565b5b8235905067ffffffffffffffff811115610e1a57610e19610de0565b5b602083019150836001820283011115610e3657610e35610de4565b5b9250929050565b5f805f60408486031215610e5457610e53610c54565b5b5f84013567ffffffffffffffff811115610e7157610e70610c58565b5b610e7d86828701610de8565b93509350506020610e9086828701610c7b565b9150509250925092565b5f602082019050610ead5f830184610d69565b92915050565b610ebc81610cd9565b8114610ec6575f80fd5b50565b5f81359050610ed781610eb3565b92915050565b5f60208284031215610ef257610ef1610c54565b5b5f610eff84828501610ec9565b91505092915050565b5f81519050919050565b5f82825260208201905092915050565b5f819050602082019050919050565b610f3a81610cd9565b82525050565b5f82825260208201905092915050565b5f610f5a82610cf9565b610f648185610f40565b9350610f74818560208601610d13565b610f7d81610d21565b840191505092915050565b610f9181610c5c565b82525050565b610fa081610d78565b82525050565b5f608083015f830151610fbb5f860182610f31565b5060208301518482036020860152610fd38282610f50565b9150506040830151610fe86040860182610f88565b506060830151610ffb6060860182610f97565b508091505092915050565b5f6110118383610fa6565b905092915050565b5f602082019050919050565b5f61102f82610f08565b6110398185610f12565b93508360208202850161104b85610f22565b805f5b8581101561108657848403895281516110678582611006565b945061107283611019565b925060208a0199505060018101905061104e565b50829750879550505050505092915050565b5f6020820190508181035f8301526110b08184611025565b905092915050565b7f4e487b71000000000000000000000000000000000000000000000000000000005f52602260045260245ffd5b5f60028204905060018216806110fc57607f821691505b60208210810361110f5761110e6110b8565b5b50919050565b7f4e487b71000000000000000000000000000000000000000000000000000000005f52604160045260245ffd5b5f819050815f5260205f209050919050565b5f6020601f8301049050919050565b5f82821b905092915050565b5f6008830261119e7fffffffffffffffffffffffffffffffffffffffffffffffffffffffffffffffff82611163565b6111a88683611163565b95508019841693508086168417925050509392505050565b5f819050919050565b5f6111e36111de6111d984610c5c565b6111c0565b610c5c565b9050919050565b5f819050919050565b6111fc836111c9565b611210611208826111ea565b84845461116f565b825550505050565b5f90565b611224611218565b61122f8184846111f3565b505050565b5b81811015611252576112475f8261121c565b600181019050611235565b5050565b601f8211156112975761126881611142565b61127184611154565b81016020851015611280578190505b61129461128c85611154565b830182611234565b50505b505050565b5f82821c905092915050565b5f6112b75f198460080261129c565b1980831691505092915050565b5f6112cf83836112a8565b9150826002028217905092915050565b6112e882610cf9565b67ffffffffffffffff81111561130157611300611115565b5b61130b82546110e5565b611316828285611256565b5f60209050601f831160018114611347575f8415611335578287015190505b61133f85826112c4565b8655506113a6565b601f19841661135586611142565b5f5b8281101561137c57848901518255600182019150602085019450602081019050611357565b868310156113995784890151611395601f8916826112a8565b8355505b6001600288020188555050505b505050505050565b7f4e487b71000000000000000000000000000000000000000000000000000000005f52601160045260245ffd5b5f6113e582610c5c565b91507fffffffffffffffffffffffffffffffffffffffffffffffffffffffffffffffff8203611417576114166113ae565b5b600182019050919050565b7f4e487b71000000000000000000000000000000000000000000000000000000005f52603260045260245ffd5b7f496e646578206f7574206f6620626f756e6473000000000000000000000000005f82015250565b5f611483601383610d03565b915061148e8261144f565b602082019050919050565b5f6020820190508181035f8301526114b081611477565b9050919050565b7f4974656d206e6f7420617661696c61626c6520617420616c6c000000000000005f82015250565b5f6114eb601983610d03565b91506114f6826114b7565b602082019050919050565b5f6020820190508181035f830152611518816114df565b9050919050565b7f4974656d20616c726561647920736f6c640000000000000000000000000000005f82015250565b5f611553601183610d03565b915061155e8261151f565b602082019050919050565b5f6020820190508181035f83015261158081611547565b9050919050565b7f496e73756666696369656e74207061796d656e740000000000000000000000005f82015250565b5f6115bb601483610d03565b91506115c682611587565b602082019050919050565b5f6020820190508181035f8301526115e8816115af565b9050919050565b5f81905092915050565b50565b5f6116075f836115ef565b9150611612826115f9565b5f82019050919050565b5f611626826115fc565b9150819050919050565b7f5472616e73616374696f6e206661696c656400000000000000000000000000005f82015250565b5f611664601283610d03565b915061166f82611630565b602082019050919050565b5f6020820190508181035f83015261169181611658565b905091905056fea2646970667358221220279aa76d94b323c2a404157a175199779f965cfe560e826e76d4132f9ad38db364736f6c63430008190033","linkReferences":{}},"methodIdentifiers":{"addItem(string,uint256)":"62d6bbdf","allMarketPlaceItems()":"f287eb64","buy(uint256)":"d96a094a","clientListedItems(address)":"c71bc684","getMarketItem(uint256)":"c7be7a49","getMarketItemCount()":"b806d872","getOne()":"ab5ed150","marketItems(uint256)":"51f28e14","numOfItems()":"82682ff3"},"id":0}