{"abi":[{"type":"function","name":"addItem","inputs":[{"name":"_name","type":"string","internalType":"string"},{"name":"_amount","type":"uint256","internalType":"uint256"}],"outputs":[],"stateMutability":"nonpayable"},{"type":"function","name":"allMarketPlaceItems","inputs":[],"outputs":[{"name":"items","type":"tuple[]","internalType":"struct MarketPlace.Market[]","components":[{"name":"owner","type":"address","internalType":"address"},{"name":"name","type":"string","internalType":"string"},{"name":"amount","type":"uint256","internalType":"uint256"},{"name":"sold","type":"bool","internalType":"bool"}]}],"stateMutability":"view"},{"type":"function","name":"buy","inputs":[{"name":"_index","type":"uint256","internalType":"uint256"}],"outputs":[],"stateMutability":"payable"},{"type":"function","name":"clientListedItems","inputs":[{"name":"_owner","type":"address","internalType":"address"}],"outputs":[{"name":"items","type":"tuple[]","internalType":"struct MarketPlace.Market[]","components":[{"name":"owner","type":"address","internalType":"address"},{"name":"name","type":"string","internalType":"string"},{"name":"amount","type":"uint256","internalType":"uint256"},{"name":"sold","type":"bool","internalType":"bool"}]}],"stateMutability":"view"},{"type":"function","name":"getMarketItem","inputs":[{"name":"index","type":"uint256","internalType":"uint256"}],"outputs":[{"name":"owner","type":"address","internalType":"address"},{"name":"name","type":"string","internalType":"string"},{"name":"amount","type":"uint256","internalType":"uint256"},{"name":"sold","type":"bool","internalType":"bool"}],"stateMutability":"view"},{"type":"function","name":"getMarketItemCount","inputs":[],"outputs":[{"name":"","type":"uint256","internalType":"uint256"}],"stateMutability":"view"},{"type":"function","name":"getOne","inputs":[],"outputs":[{"name":"","type":"uint256","internalType":"uint256"}],"stateMutability":"pure"},{"type":"function","name":"marketItems","inputs":[{"name":"","type":"uint256","internalType":"uint256"}],"outputs":[{"name":"owner","type":"address","internalType":"address"},{"name":"name","type":"string","internalType":"string"},{"name":"amount","type":"uint256","internalType":"uint256"},{"name":"sold","type":"bool","internalType":"bool"}],"stateMutability":"view"},{"type":"function","name":"numOfItems","inputs":[],"outputs":[{"name":"","type":"uint256","internalType":"uint256"}],"stateMutability":"view"}],"bytecode":{"object":"0x6080604052348015600f57600080fd5b50610d5d8061001f6000396000f3fe6080604052600436106100865760003560e01c8063b806d87211610059578063b806d8721461011e578063c71bc68414610133578063c7be7a4914610160578063d96a094a14610180578063f287eb641461019357600080fd5b806351f28e141461008b57806362d6bbdf146100c457806382682ff3146100e6578063ab5ed1501461010a575b600080fd5b34801561009757600080fd5b506100ab6100a63660046109ac565b6101a8565b6040516100bb9493929190610a0b565b60405180910390f35b3480156100d057600080fd5b506100e46100df366004610a47565b610267565b005b3480156100f257600080fd5b506100fc60015481565b6040519081526020016100bb565b34801561011657600080fd5b5060016100fc565b34801561012a57600080fd5b506001546100fc565b34801561013f57600080fd5b5061015361014e366004610abf565b610344565b6040516100bb9190610aef565b34801561016c57600080fd5b506100ab61017b3660046109ac565b610552565b6100e461018e3660046109ac565b610673565b34801561019f57600080fd5b50610153610817565b600060208190529081526040902080546001820180546001600160a01b0390921692916101d490610b89565b80601f016020809104026020016040519081016040528092919081815260200182805461020090610b89565b801561024d5780601f106102225761010080835404028352916020019161024d565b820191906000526020600020905b81548152906001019060200180831161023057829003601f168201915b50505050600283015460039093015491929160ff16905084565b6040518060800160405280336001600160a01b0316815260200184848080601f01602080910402602001604051908101604052809392919081815260200183838082843760009201829052509385525050506020808301859052604092830182905260018054835282825292909120835181546001600160a01b0319166001600160a01b039091161781559083015190918201906103059082610c2a565b50604082015160028201556060909101516003909101805460ff19169115159190911790556001805490600061033a83610cea565b9190505550505050565b60606000805b60015481101561038b576000818152602081905260409020546001600160a01b03808616911603610383578161037f81610cea565b9250505b60010161034a565b508067ffffffffffffffff8111156103a5576103a5610bc3565b60405190808252806020026020018201604052801561040c57816020015b6103f9604051806080016040528060006001600160a01b0316815260200160608152602001600081526020016000151581525090565b8152602001906001900390816103c35790505b5091506000805b60015481101561054a576000818152602081905260409020546001600160a01b03808716911603610542576000818152602081815260409182902082516080810190935280546001600160a01b03168352600181018054919284019161047890610b89565b80601f01602080910402602001604051908101604052809291908181526020018280546104a490610b89565b80156104f15780601f106104c6576101008083540402835291602001916104f1565b820191906000526020600020905b8154815290600101906020018083116104d457829003601f168201915b50505091835250506002820154602082015260039091015460ff161515604090910152845185908490811061052857610528610d11565b6020026020010181905250818061053e90610cea565b9250505b600101610413565b505050919050565b6000606060008060015485106105a55760405162461bcd60e51b8152602060048201526013602482015272496e646578206f7574206f6620626f756e647360681b60448201526064015b60405180910390fd5b60008581526020819052604090208054600282015460038301546001840180546001600160a01b039094169390929160ff169083906105e390610b89565b80601f016020809104026020016040519081016040528092919081815260200182805461060f90610b89565b801561065c5780601f106106315761010080835404028352916020019161065c565b820191906000526020600020905b81548152906001019060200180831161063f57829003601f168201915b505050505092509450945094509450509193509193565b60015481106106b95760405162461bcd60e51b81526020600482015260126024820152714974656d206e6f7420617661696c61626c6560701b604482015260640161059c565b6000818152602081905260409020600381015460ff16156107105760405162461bcd60e51b8152602060048201526011602482015270125d195b48185b1c9958591e481cdbdb19607a1b604482015260640161059c565b8060020154341461075a5760405162461bcd60e51b8152602060048201526014602482015273125b9cdd59999a58da595b9d081c185e5b595b9d60621b604482015260640161059c565b805460028201546040516000926001600160a01b031691908381818185875af1925050503d80600081146107aa576040519150601f19603f3d011682016040523d82523d6000602084013e6107af565b606091505b50509050806107f55760405162461bcd60e51b8152602060048201526012602482015271151c985b9cd858dd1a5bdb8819985a5b195960721b604482015260640161059c565b5080546001600160a01b03191633178155600301805460ff1916600117905550565b606060015467ffffffffffffffff81111561083457610834610bc3565b60405190808252806020026020018201604052801561089b57816020015b610888604051806080016040528060006001600160a01b0316815260200160608152602001600081526020016000151581525090565b8152602001906001900390816108525790505b50905060005b6001548110156109a8576000818152602081815260409182902082516080810190935280546001600160a01b0316835260018101805491928401916108e590610b89565b80601f016020809104026020016040519081016040528092919081815260200182805461091190610b89565b801561095e5780601f106109335761010080835404028352916020019161095e565b820191906000526020600020905b81548152906001019060200180831161094157829003601f168201915b50505091835250506002820154602082015260039091015460ff161515604090910152825183908390811061099557610995610d11565b60209081029190910101526001016108a1565b5090565b6000602082840312156109be57600080fd5b5035919050565b6000815180845260005b818110156109eb576020818501810151868301820152016109cf565b506000602082860101526020601f19601f83011685010191505092915050565b6001600160a01b0385168152608060208201819052600090610a2f908301866109c5565b60408301949094525090151560609091015292915050565b600080600060408486031215610a5c57600080fd5b833567ffffffffffffffff80821115610a7457600080fd5b818601915086601f830112610a8857600080fd5b813581811115610a9757600080fd5b876020828501011115610aa957600080fd5b6020928301989097509590910135949350505050565b600060208284031215610ad157600080fd5b81356001600160a01b0381168114610ae857600080fd5b9392505050565b600060208083018184528085518083526040925060408601915060408160051b87010184880160005b83811015610b7b57888303603f19018552815180516001600160a01b0316845287810151608089860181905290610b51828701826109c5565b838a0151878b01526060938401511515939096019290925250509386019390860190600101610b18565b509098975050505050505050565b600181811c90821680610b9d57607f821691505b602082108103610bbd57634e487b7160e01b600052602260045260246000fd5b50919050565b634e487b7160e01b600052604160045260246000fd5b601f821115610c25576000816000526020600020601f850160051c81016020861015610c025750805b601f850160051c820191505b81811015610c2157828155600101610c0e565b5050505b505050565b815167ffffffffffffffff811115610c4457610c44610bc3565b610c5881610c528454610b89565b84610bd9565b602080601f831160018114610c8d5760008415610c755750858301515b600019600386901b1c1916600185901b178555610c21565b600085815260208120601f198616915b82811015610cbc57888601518255948401946001909101908401610c9d565b5085821015610cda5787850151600019600388901b60f8161c191681555b5050505050600190811b01905550565b600060018201610d0a57634e487b7160e01b600052601160045260246000fd5b5060010190565b634e487b7160e01b600052603260045260246000fdfea264697066735822122030c15fd3264fc395154cbee540ad9b33249a72b417b3121952a6cd66b08eec1264736f6c63430008190033","linkReferences":{}},"methodIdentifiers":{"addItem(string,uint256)":"62d6bbdf","allMarketPlaceItems()":"f287eb64","buy(uint256)":"d96a094a","clientListedItems(address)":"c71bc684","getMarketItem(uint256)":"c7be7a49","getMarketItemCount()":"b806d872","getOne()":"ab5ed150","marketItems(uint256)":"51f28e14","numOfItems()":"82682ff3"},"id":0}